:020000040000FA
:030000000200DB20
:0300130002022DB9
:10007B0002024C00000080FB12010BB900030200CE
:10008B00C5E4900F00781A79018002F0A3D8FCD94F
:10009B00FA900F19AA82AB8390010E781079018028
:1000AB0015E493A3AC82AD838A828B83F0A3AA82DF
:1000BB00AB838C828D83D8E9D9E77582287583034E
:1000CB0074001200ED75827E75830074001200EDD2
:1000DB0075D0007581BF75100075110F759F0002EB
:1000EB000083C09FF59FE473D09F22D083D082C042
:1000FB009FE493C0E0740193C0E0740293F59F22D8
:10010B00790122D6EDCAC72000CBADCAC7D6EDA365
:10011B00BF001200F67402001200F69202001200E9
:10012B00F6B502001200F6EE02002510C582C0E003
:10013B00E51134FFC583C0E0E510C3958224F810A8
:10014B00AF08858311858210800885831185821005
:10015B00D2AFCEF0A3E520F0A37808E608F0A3DE3B
:10016B00FAEFF0A3E58124FAF8E608F0A3E608F02D
:10017B00A3E608F0A30808E608F0A3E608F0A31529
:10018B00811581D0E0FED0E0F8158115811581E84D
:10019B00C0E0EEC0E022851183851082E0A3FEE073
:1001AB00A3F5207808E0A3F608DFFAE0A3FFE0A3AD
:1001BB00C0E0E0A3C0E0E0A3C0E0E0A3C0E0E0A3A8
:1001CB00C0E010AF088582108583118008858210EE
:1001DB00858311D2AFD083D0820200F3D083D0823B
:1001EB00E9C0E0E493A3C386F0C5F095F0F908E409
:1001FB0093A386F0C5F095F0700BE493A3C39940DD
:10020B0005E9048002A3E475F002A42582F582E5DA
:10021B00F03583F583D0E0F9E493A3C0E0E493C019
:10022B00E022C0E0C0D0C082C083C28BE5C1900F7A
:10023B0001F0900F007401F0D083D082D0D0D0E0C9
:10024B0032C0E0C0D0C082C083A2925011900F1771
:10025B00E02401F0A3E03400F0C290538AFBC2EB20
:10026B00D083D082D0D0D0E03253F4E643FE1BD201
:10027B0090D291439A10438D04438C02D2AF53F426
:10028B00E043FE1B0200F353C680E59EA2E640FA54
:10029B0075F10043F33C53FF3F7586C075C5097577
:1002AB00C23BC2E975A8840200F378007900801E76
:1002BB00EC2401FCED3400FDC3EC94F4ED9401A2AD
:1002CB00D265D03340EAE82401F8E93400F9C3E8F9
:1002DB009AE99BA2D265D03350067C007D0080D872
:1002EB000200F374F712013578007900801E8A82C0
:1002FB008B83E0F5C18A828B83A3AA82AB83A2E9AD
:10030B0050FCC2E9E82401F8E93400F9C3E89CE9A0
:10031B009DA2D265D03340D67F010201A1120123E9
:10032B0012011D7E017F00802D5386BF7C067D0050
:10033B007A197B0F12012F7AE87B031201297C14A7
:10034B007D007A037B0F12012F900F027400F04394
:10035B0086407E017F00900F17E0F508A3E0F509BA
:10036B0078081201E701000161037903DC038E08B1
:10037B008F0978081201E701000161038B03A003C9
:10038B007C097D007A1F7B0F12012FEE2401FEEFFB
:10039B003400FF80C1900F00E0640170B9900F0032
:1003AB007400F0900F01E064237003020334900F8C
:1003BB0001E0C0E0900F02E0F87900740328F582A9
:1003CB00740F39F583D0E0F0900F02E02401F08038
:0A03DB0085900F007400F00203612A
:04000005000000DB1C
:00000001FF
