:020000040000FA
:1000000002005000000080FB120080B900030200D3
:100010003A900F00AA82AB83900083780E7901801A
:1000200015E493A3AC82AD838A828B83F0A3AA826A
:10003000AB838C828D83D8E9D9E77582EA75830119
:1000400074001200627582037583007400120062EE
:1000500075D0007581BF75100075110F759F000276
:100060000008C09FF59FE473D09F22D083D082C048
:100070009FE493C0E0740193C0E0740293F59F2263
:10008000790122D0A1B0A2CEB0B0AEB5E7B6AF0034
:1000900012006B54010012006B8D010012006BB056
:1000A00001002510C582C0E0E51134FFC583C0E022
:1000B000E510C3958224F810AF088583118582105E
:1000C0008008858311858210D2AFCEF0A3E520F0A1
:1000D000A37808E608F0A3DEFAEFF0A3E58124FA9E
:1000E000F8E608F0A3E608F0A3E608F0A30808E69F
:1000F00008F0A3E608F0A315811581D0E0FED0E05A
:10010000F8158115811581E8C0E0EEC0E022851167
:1001100083851082E0A3FEE0A3F5207808E0A3F633
:1001200008DFFAE0A3FFE0A3C0E0E0A3C0E0E0A3A3
:10013000C0E0E0A3C0E0E0A3C0E010AF08858210FB
:100140008583118008858210858311D2AFD083D03A
:100150008202006878007900801EEC2401FCED34F6
:1001600000FDC3EC94F4ED9401A2D265D03340EAD3
:10017000E82401F8E93400F9C3E89AE99BA2D265C2
:10018000D03350067C007D0080D802006853C6BF83
:10019000E59EA2E640FA53C6B875F10043F33C531E
:1001A000FF3F75868075C50975C23BC2E9020068CC
:1001B00074F71200A278007900801E8A828B83E097
:1001C000F5C18A828B83A3AA82AB83A2E950FCC2C9
:1001D000E9E82401F8E93400F9C3E89CE99DA2D2DA
:1001E00065D03340D67F0102010E1200967C0D7D52
:1001F000007A007B0F12009C7AE87B03120090804B
:01020000EC11
:0400000500000050A7
:00000001FF
