:020000040000FA
:1000000002002700000080FB120051B9000302002B
:100010001175827A7583007400120033758203753E
:100020008300740012003375D0007581BF759F0086
:10003000020008C09FF59FE473D09F22D083D08236
:10004000C09FE493C0E0740193C0E0740293F59FF5
:100050002279012212003C5A000053C680E59EA27C
:10006000E640FA75F10043F33C53FF3F7586C075D7
:10007000C50975C23BC2E902003912005453F4E6C7
:1000800043FE1BD290D291800AD2F0A29030F001B0
:10009000B39290A28B50FCC28BE5C124CF60EA14CE
:1000A000600514600E80ECD2F0A29130F001B392A2
:0900B0009180E0D290D29180DA37
:0400000500000027D0
:00000001FF
