:020000040000FA
:0300000002004AB1
:1000130002007D00000080FB120074B9000302009F
:1000230034E4900001780379018002F0A3D8FCD96D
:10003300FA7582BF758300740012005675821675B7
:100043008300740012005675D0007581BF759F0040
:1000530002001BC09FF59FE473D09F22D083D08200
:10006300C09FE493C0E0740193C0E0740293F59FD2
:100073002279012212005F9C0000C0E0C0D0C08240
:10008300C083C28BE5C1900002F09000017401F0BF
:10009300D083D082D0D0D0E03253C680E59EA2E692
:1000A30040FA75F10043F33C53FF3F7586C075C5B5
:1000B3000975C23BC2E975A88402005C120077533C
:1000C300F4E643FE1BD290D2918002C290900001CD
:1000D300E0640170F89000017400F0900002E024E5
:0A00E300CF60E81470E7C29180E3DB
:040000050000004AAD
:00000001FF
