:020000040000FA
:030000000200B249
:03004B0002013778
:10007B0002020600000080FB1200DCB90003020044
:10008B009CE4900001780779018002F0A3D8FCD999
:10009B00FA75829475830274001200BE75827E75A8
:1000AB00830074001200BE75D0007581BF759F0070
:1000BB00020083C09FF59FE473D09F22D083D08230
:1000CB00C09FE493C0E0740193C0E0740293F59F6A
:1000DB00227901221200C74802001200C7620200F7
:1000EB001200C77B0200D083D082E9C0E0E493A367
:1000FB00C386F0C5F095F0F908E493A386F0C5F03C
:10010B0095F0700BE493A3C3994005E9048002A317
:10011B00E475F002A42582F582E5F03583F583D0F2
:10012B00E0F9E493A3C0E0E493C0E022C0E0C0D0C8
:10013B00E8C0E0C008C009C082C083900001E0F5B0
:10014B0008A3E0F50978081200F1000002F601603F
:10015B00016B01DF01D290C291C293C2940201F6EE
:10016B00900003C3E09414A3E09400A2D265D033B3
:10017B00500E900003E02401F0A3E03400F0801651
:10018B00900005E02401F0A3E03400F0900003742C
:10019B000FF0A37400F0900005E0F508A3E0F5095B
:1001AB0078081200F1010003F601BD01C301C9017A
:1001BB00CF01D290C2948033D291C290802DD29332
:1001CB00C2918027D294C2939000057400F0A3745F
:1001DB0000F080179000057400F0A37400F09000FD
:1001EB00037400F0A37400F0759000D083D082D01C
:1001FB0009D008D0E0F8D0D0D0E032C0E0C0D0C0F9
:10020B0082C083A2924028A29250FC900001E0246D
:10021B0001F0A3E03400F0900001E064037004A34C
:10022B00E06400700A9000017401F0A37400F07593
:10023B008A00C2EBD083D082D0D0D0E03253F4E02E
:10024B0043FEFB53FE1B759000759A10758D04755C
:10025B008C02D2AF0200C453C680E59EA2E640FAE0
:10026B00D2AFD2B975E40F75DB0F75DAFF0200C49C
:10027B0053C68053F1FE43F30C53C4E343C23B43D9
:10028B008680C2E9D2AF0200C41200E51200DF1271
:04029B0000EB80FEF6
:04000005000000B245
:00000001FF
