:020000040000FA
:030000000200708B
:10004B0002014200000080FB120079B9000302009C
:10005B006AE479107804B800028004F709D8FC121E
:10006B00013A12004E75D0007581BF020053790121
:10007B0022C8C0E0E9C0E0A9811919E583C7F5835F
:10008B0019E582C7F582EAC0E0EBC0E0ECC0E0ED19
:10009B00C0E0EEC0E0EFC0E0C0D0C0F0C0207908F7
:1000AB00E709C0E0D8FAE47374072FF8D0E0F6182C
:1000BB00DFFAD020D0F0D0D0D0E0FFD0E0FED0E0FF
:1000CB00FDD0E0FCD0E0FBD0E0FAD0E0F9D0E0F8D6
:1000DB00D083D082D0E032801EE824FFF8E934FFD1
:1000EB00F9C3E89401E99400A2D265D03350EAEA4F
:1000FB0024FFFAEB34FFFBC3EA9401EB9400A2D28A
:10010B0065D03340067845790180D62253F4E0431D
:10011B00FE1B53FEFBC293C294C290C2912253C6E4
:10012B0080E59EA2E640FAD2AFD2B975E405221261
:10013B00012912011780FEC0E0740112007C7810B7
:10014B00C3E6946408E69400A2D265D033500F78CE
:10015B0010E62401F608740036F6180201EA78124C
:10016B00E64670607810765A0876007812760108A9
:10017B007600D2937A2C7B011200E2D2947A2C7BFC
:10018B00011200E2D2907A2C7B011200E2D2917A1A
:10019B002C7B011200E2C293C294C290C2917A2CC2
:1001AB007B011200E2D2917A2C7B011200E2D290F9
:1001BB007A2C7B011200E2D2947A2C7B011200E2A2
:1001CB00D293801B7812E624FFF60874FF36F618DC
:1001DB0078107600087600C293C294C290C2917FC9
:0401EB00010200B35A
:040000050000007087
:00000001FF
